{
  "contractName": "Ballot",
  "abi": [
    {
      "constant": true,
      "inputs": [],
      "name": "chairperson",
      "outputs": [
        {
          "name": "",
          "type": "address"
        }
      ],
      "payable": false,
      "stateMutability": "view",
      "type": "function"
    },
    {
      "constant": true,
      "inputs": [
        {
          "name": "",
          "type": "uint256"
        }
      ],
      "name": "votersAddr",
      "outputs": [
        {
          "name": "",
          "type": "address"
        }
      ],
      "payable": false,
      "stateMutability": "view",
      "type": "function"
    },
    {
      "inputs": [],
      "payable": false,
      "stateMutability": "nonpayable",
      "type": "constructor"
    },
    {
      "constant": true,
      "inputs": [],
      "name": "getList",
      "outputs": [
        {
          "components": [
            {
              "name": "weight",
              "type": "uint256"
            },
            {
              "name": "voted",
              "type": "bool"
            },
            {
              "name": "vote",
              "type": "uint8"
            },
            {
              "name": "delegate",
              "type": "address"
            }
          ],
          "name": "",
          "type": "tuple[]"
        }
      ],
      "payable": false,
      "stateMutability": "view",
      "type": "function"
    },
    {
      "constant": true,
      "inputs": [],
      "name": "getChairPersion",
      "outputs": [
        {
          "name": "",
          "type": "address"
        }
      ],
      "payable": false,
      "stateMutability": "view",
      "type": "function"
    },
    {
      "constant": true,
      "inputs": [],
      "name": "getAllProposal",
      "outputs": [
        {
          "components": [
            {
              "name": "voteCount",
              "type": "uint256"
            }
          ],
          "name": "",
          "type": "tuple[]"
        }
      ],
      "payable": false,
      "stateMutability": "view",
      "type": "function"
    },
    {
      "constant": true,
      "inputs": [
        {
          "name": "num",
          "type": "uint8"
        }
      ],
      "name": "getAProposal",
      "outputs": [
        {
          "components": [
            {
              "name": "voteCount",
              "type": "uint256"
            }
          ],
          "name": "",
          "type": "tuple"
        }
      ],
      "payable": false,
      "stateMutability": "view",
      "type": "function"
    },
    {
      "constant": true,
      "inputs": [
        {
          "name": "addr",
          "type": "address"
        }
      ],
      "name": "getAVoter",
      "outputs": [
        {
          "components": [
            {
              "name": "weight",
              "type": "uint256"
            },
            {
              "name": "voted",
              "type": "bool"
            },
            {
              "name": "vote",
              "type": "uint8"
            },
            {
              "name": "delegate",
              "type": "address"
            }
          ],
          "name": "",
          "type": "tuple"
        }
      ],
      "payable": false,
      "stateMutability": "view",
      "type": "function"
    },
    {
      "constant": true,
      "inputs": [],
      "name": "getVotersListSize",
      "outputs": [
        {
          "name": "",
          "type": "uint256"
        }
      ],
      "payable": false,
      "stateMutability": "view",
      "type": "function"
    },
    {
      "constant": true,
      "inputs": [],
      "name": "getVotersAddr",
      "outputs": [
        {
          "name": "",
          "type": "address[10]"
        }
      ],
      "payable": false,
      "stateMutability": "view",
      "type": "function"
    },
    {
      "constant": false,
      "inputs": [
        {
          "name": "toVoter",
          "type": "address"
        }
      ],
      "name": "giveRightToVote",
      "outputs": [],
      "payable": false,
      "stateMutability": "nonpayable",
      "type": "function"
    },
    {
      "constant": false,
      "inputs": [
        {
          "name": "to",
          "type": "address"
        }
      ],
      "name": "delegate",
      "outputs": [],
      "payable": false,
      "stateMutability": "nonpayable",
      "type": "function"
    },
    {
      "constant": false,
      "inputs": [
        {
          "name": "toProposal",
          "type": "uint8"
        }
      ],
      "name": "vote",
      "outputs": [],
      "payable": false,
      "stateMutability": "nonpayable",
      "type": "function"
    },
    {
      "constant": true,
      "inputs": [],
      "name": "winningProposal",
      "outputs": [
        {
          "name": "_winningProposal",
          "type": "uint8"
        }
      ],
      "payable": false,
      "stateMutability": "view",
      "type": "function"
    }
  ],
  "bytecode": "0x608060405234801561001057600080fd5b506000805433600160a060020a031991821617808355600160a060020a03908116835260016020818152604080862083905585548416865260028083528187208484528288208154808701835591895284892081549284020191825585018054918601805460ff1990811660ff948516151517808355835461ff001991821661010091829004871682021780855594546201000060b060020a031995861662010000918290048d168202179094558c548b168d52868952878d208a8a52978d208854808c018a55988e52988d208954989097029096019687559688018054968901805490921696851615159690961780825586549716968590049093169093029490941780825592549290931691819004851602179055600e559154600480549190931691161790556003610145818061014b565b50610195565b81548183558181111561016f5760008381526020902061016f918101908301610174565b505050565b61019291905b8082111561018e576000815560010161017a565b5090565b90565b610ad4806101a46000396000f3006080604052600436106100c45763ffffffff7c01000000000000000000000000000000000000000000000000000000006000350416632aeb69a981146100c95780632c6a48ca146100f45780632e4176cf1461012157806343344983146101365780635c19a95c146101585780635d09d21f1461017a578063609ff1bd1461019c57806367d7a419146101be578063942b765a146101eb5780639e7b8d611461020d578063affb40471461022d578063b3f98adc1461024d578063d2ab533e1461026d575b600080fd5b3480156100d557600080fd5b506100de61028f565b6040516100eb91906109f3565b60405180910390f35b34801561010057600080fd5b5061011461010f366004610819565b61029e565b6040516100eb9190610a46565b34801561012d57600080fd5b506100de610302565b34801561014257600080fd5b5061014b610311565b6040516100eb9190610a16565b34801561016457600080fd5b50610178610173366004610819565b61036f565b005b34801561018657600080fd5b5061018f6104cf565b6040516100eb9190610a07565b3480156101a857600080fd5b506101b1610515565b6040516100eb9190610a62565b3480156101ca57600080fd5b506101de6101d936600461085d565b610580565b6040516100eb9190610a38565b3480156101f757600080fd5b506102006105b7565b6040516100eb9190610a27565b34801561021957600080fd5b50610178610228366004610819565b610657565b34801561023957600080fd5b506100de61024836600461083f565b6106fd565b34801561025957600080fd5b5061017861026836600461085d565b61071a565b34801561027957600080fd5b50610282610779565b6040516100eb9190610a54565b600054600160a060020a031690565b6102a6610795565b50600160a060020a0390811660009081526001602081815260409283902083516080810185528154815292015460ff80821615159284019290925261010081049091169282019290925262010000909104909116606082015290565b600054600160a060020a031681565b60606003805480602002602001604051908101604052809291908181526020016000905b8282101561036657600084815260209081902060408051808401909152908401548152825260019092019101610335565b50505050905090565b33600090815260016020819052604082209081015490919060ff1615610394576104ca565b5b600160a060020a038381166000908152600160208190526040909120015462010000900416158015906103ec5750600160a060020a0383811660009081526001602081905260409091200154620100009004163314155b1561041e57600160a060020a039283166000908152600160208190526040909120015462010000900490921691610395565b600160a060020a038316331415610434576104ca565b506001818101805460ff1916821775ffffffffffffffffffffffffffffffffffffffff0000191662010000600160a060020a0386169081029190911790915560009081526020829052604090209081015460ff16156104c25781546001820154600380549091610100900460ff169081106104ab57fe5b6000918252602090912001805490910190556104ca565b815481540181555b505050565b6104d76107bc565b6040805161014081019182905290600490600a9082845b8154600160a060020a031681526001909101906020018083116104ee575050505050905090565b600080805b60035460ff8216101561057b578160038260ff1681548110151561053a57fe5b90600052602060002001600001541115610573576003805460ff831690811061055f57fe5b906000526020600020016000015491508092505b60010161051a565b505090565b6105886107dc565b6003805460ff841690811061059957fe5b60009182526020918290206040805193840190520154815292915050565b60008054600160a060020a03168152600260209081526040808320805482518185028101850190935280835260609492939192909184015b8282101561036657600084815260209081902060408051608081018252600286029092018054835260019081015460ff8082161515858701526101008204169284019290925262010000909104600160a060020a0316606083015290835290920191016105ef565b600054600160a060020a03163314158061068d5750600160a060020a0381166000908152600160208190526040909120015460ff165b15610697576106fa565b600160a060020a0381166000908152600160208190526040909120819055600e805491820190558190600490600a81106106cd57fe5b01805473ffffffffffffffffffffffffffffffffffffffff1916600160a060020a03929092169190911790555b50565b600481600a811061070a57fe5b0154600160a060020a0316905081565b336000908152600160208190526040909120808201805460ff191690921761ff00191661010060ff85169081029190911790925580546003805492939192909190811061076357fe5b6000918252602090912001805490910190555050565b60008054600160a060020a031681526002602052604090205490565b60408051608081018252600080825260208201819052918101829052606081019190915290565b61014060405190810160405280600a906020820280388339509192915050565b60408051602081019091526000815290565b60006107fa8235610a83565b9392505050565b60006107fa8235610a70565b60006107fa8235610a94565b60006020828403121561082b57600080fd5b600061083784846107ee565b949350505050565b60006020828403121561085157600080fd5b60006108378484610801565b60006020828403121561086f57600080fd5b6000610837848461080d565b61088481610a83565b82525050565b61089381610a79565b61089c82610a70565b60005b828110156108cc576108b285835161087b565b6108bb82610a73565b60209590950194915060010161089f565b5050505050565b60006108de82610a7f565b8084526020840193506108f083610a73565b60005b8281101561092057610906868351610980565b61090f82610a73565b6020969096019591506001016108f3565b5093949350505050565b600061093582610a7f565b80845260208401935061094783610a73565b60005b828110156109205761095d868351610997565b61096682610a73565b60809690960195915060010161094a565b61088481610a8f565b8051602083019061099184826109e1565b50505050565b805160808301906109a884826109e1565b5060208201516109bb6020850182610977565b5060408201516109ce60408501826109ea565b506060820151610991606085018261087b565b61088481610a70565b61088481610a94565b60208101610a01828461087b565b92915050565b6101408101610a01828461088a565b602080825281016107fa81846108d3565b602080825281016107fa818461092a565b60208101610a018284610980565b60808101610a018284610997565b60208101610a0182846109e1565b60208101610a0182846109ea565b90565b60200190565b50600a90565b5190565b600160a060020a031690565b151590565b60ff16905600a265627a7a72305820d30300997ef117161841d583a76b821625372ba02f1a6c83cef68a4f8b39d87d6c6578706572696d656e74616cf50037",
  "source": "pragma solidity ^0.4.23;\npragma experimental ABIEncoderV2;\n\ncontract Ballot {\n\n    struct Voter {\n        uint weight;\n        bool voted;\n        uint8 vote;\n        address delegate;\n    }\n    struct Proposal {\n        uint voteCount;\n    }\n\n    address public chairperson;\n    mapping(address => Voter) voters;\n    mapping(address => Voter[]) voterslist;\n    Proposal[] proposals;\n    address[10] public votersAddr;\n    uint numberOfVoter;\n\n    /// Create a new ballot with $(_numProposals) different proposals.\n    function Ballot(/*uint8 _numProposals*/) public {\n        chairperson = msg.sender;\n        voters[chairperson].weight = 1;\n        voterslist[chairperson].push(voters[chairperson]);\n        voterslist[chairperson].push(voters[chairperson]);\n        numberOfVoter = 1;\n        votersAddr[0] = chairperson;\n        proposals.length = 3;//_numProposals;\n        //console.log('Create Ballo with chairperson='+chairperson);\n    }\n\n    function getList() public view returns (Voter[]) {\n        return voterslist[chairperson];\n    }\n\n    function getChairPersion() public view returns (address) {\n        return chairperson;\n    }\n\n    function getAllProposal() public view returns (Proposal[]) {\n        return proposals;\n    }\n\n    function getAProposal(uint8 num) public view returns (Proposal) {\n        return proposals[num];\n    }\n\n    function getAVoter(address addr) public view returns (Voter) {\n        return voters[addr];\n    }\n\n    function getVotersListSize() public view returns (uint) {\n        return voterslist[chairperson].length;\n    }\n\n    function getVotersAddr() public view returns (address[10]) {\n        return votersAddr;\n    }\n\n    /// Give $(toVoter) the right to vote on this ballot.\n    /// May only be called by $(chairperson).\n    function giveRightToVote(address toVoter) public {\n        if (msg.sender != chairperson || voters[toVoter].voted) return;\n        voters[toVoter].weight = 1;\n        numberOfVoter = numberOfVoter+1;\n        votersAddr[numberOfVoter-1] = toVoter;\n    }\n\n    /// Delegate your vote to the voter $(to).\n    function delegate(address to) public {\n        Voter storage sender = voters[msg.sender]; // assigns reference\n        if (sender.voted) return;\n        while (voters[to].delegate != address(0) && voters[to].delegate != msg.sender)\n            to = voters[to].delegate;\n        if (to == msg.sender) return;\n        sender.voted = true;\n        sender.delegate = to;\n        Voter storage delegateTo = voters[to];\n        if (delegateTo.voted)\n            proposals[delegateTo.vote].voteCount += sender.weight;\n        else\n            delegateTo.weight += sender.weight;\n    }\n\n    /// Give a single vote to proposal $(toProposal).\n    function vote(uint8 toProposal) public {\n        Voter storage sender = voters[msg.sender];\n        //let's allow voters to cast as many vote as they want !\n        //if (sender.voted || toProposal >= proposals.length) return;\n        sender.voted = true;\n        sender.vote = toProposal;\n        proposals[toProposal].voteCount += sender.weight;\n    }\n\n    function winningProposal() public constant returns (uint8 _winningProposal) {\n        uint256 winningVoteCount = 0;\n        for (uint8 prop = 0; prop < proposals.length; prop++)\n            if (proposals[prop].voteCount > winningVoteCount) {\n                winningVoteCount = proposals[prop].voteCount;\n                _winningProposal = prop;\n            }\n    }\n}\n\n\n//Ballot.at(\"0x7fda22426ad26e792f68436188b37f9b958e04d7\").chairperson.call()\n",
  "sourcePath": "/Users/lindahong/OtherProjects/ServiceHackWeek/drizzle-box_unbox/contracts/Ballot.sol",
  "compiler": {
    "name": "solc",
    "version": "0.4.24+commit.e67f0147.Emscripten.clang"
  },
  "schemaVersion": "2.0.1",
  "updatedAt": "2018-11-25T07:22:58.316Z"
}