{
  "contractName": "SimpleStorage",
  "abi": [
    {
      "constant": true,
      "inputs": [],
      "name": "storedData",
      "outputs": [
        {
          "name": "",
          "type": "uint256"
        }
      ],
      "payable": false,
      "stateMutability": "view",
      "type": "function"
    },
    {
      "anonymous": false,
      "inputs": [
        {
          "indexed": false,
          "name": "_message",
          "type": "string"
        }
      ],
      "name": "StorageSet",
      "type": "event"
    },
    {
      "constant": false,
      "inputs": [
        {
          "name": "x",
          "type": "uint256"
        }
      ],
      "name": "set",
      "outputs": [],
      "payable": false,
      "stateMutability": "nonpayable",
      "type": "function"
    },
    {
      "constant": true,
      "inputs": [],
      "name": "getStoredData",
      "outputs": [
        {
          "name": "",
          "type": "uint256"
        }
      ],
      "payable": false,
      "stateMutability": "view",
      "type": "function"
    }
  ],
  "bytecode": "0x608060405234801561001057600080fd5b50610151806100206000396000f3006080604052600436106100565763ffffffff7c01000000000000000000000000000000000000000000000000000000006000350416632a1afcd9811461005b57806360fe47b114610082578063b69ca9a11461009c575b600080fd5b34801561006757600080fd5b506100706100b1565b60408051918252519081900360200190f35b34801561008e57600080fd5b5061009a6004356100b7565b005b3480156100a857600080fd5b5061007061011f565b60005481565b60008190556040805160208082526019908201527f446174612073746f726564207375636365737366756c6c7921000000000000008183015290517f60cdc157ca4737a5d39a0e107532616e7bf6946e615228812c7f9bc9f81797a69181900360600190a150565b600054905600a165627a7a72305820e1054d5cc45f8f01401a8c0616f23795fbee35ff91e4dd5a28237146258906340029",
  "source": "pragma solidity ^0.4.24;\n\ncontract SimpleStorage {\n  event StorageSet(\n    string _message\n  );\n\n  uint public storedData;\n\n  function set(uint x) public {\n    storedData = x;\n\n    emit StorageSet(\"Data stored successfully!\");\n  }\n\n  function getStoredData() public view returns (uint) {\n  \treturn storedData;\n  }\n}\n",
  "sourcePath": "/Users/lindahong/OtherProjects/ServiceHackWeek/drizzle-box_unbox/contracts/SimpleStorage.sol",
  "compiler": {
    "name": "solc",
    "version": "0.4.24+commit.e67f0147.Emscripten.clang"
  },
  "schemaVersion": "2.0.1",
  "updatedAt": "2018-11-25T07:22:58.301Z"
}